:020000040800F2
:1000000040130020857D0008CD010008CF010008C5
:10001000D3010008D7010008DB0100080000000040
:10002000000000000000000000000000DF010008E8
:10003000E101000800000000E3010008E5010008FC
:100040009F7D00089F7D00089F7D00089F7D000820
:100050009F7D00089F7D0008AF2B00084D290008F8
:100060009F7D00089F7D0008412E00089F7D0008AD
:100070009F7D00089F7D00089F7D00089F7D0008F0
:100080009F7D00089F7D00089F7D00089F7D0008E0
:100090009F7D00089F7D00089F7D00089F7D0008D0
:1000A0009F7D00089F7D00089F7D00089F7D0008C0
:1000B0002D1700089F7D00089F7D00089F7D000888
:1000C0009F7D00089F7D00089F7D00089F7D0008A0
:1000D0009F7D00089F7D0008055100081D4E000807
:1000E0009F7D00089F7D00089F7D00089F7D000880
:1000F0009F7D00089F7D00089F7D00089F7D000870
:100100009F7D00089F7D00082F0900089F7D000843
:100110009F7D00089F7D00089F7D00089F7D00084F
:100120009F7D00089F7D00089F7D00089F7D00083F
:10013000DFF80CD008F01AFA004800474501000823
:100140004013002001F028FB25E01B48007801281F
:1001500004D10020194908601749087004F017F805
:1001600002F0DEFA02F0D6F915480078012812D123
:1001700000201349087003F049FC00F0EEF905F087
:10018000B3FB104A118AD08903F01AFA0D4A118A7A
:10019000D08903F00CFBD8E770B504460D46E1B2F8
:1001A000094807F027FD00BF0748008800F08000DD
:1001B0000028F9D0204670BD930000209401214210
:1001C0002C0000200803002000480040704700BFBA
:1001D000FEE700BFFEE700BFFEE700BFFEE7704797
:1001E00070477047704700000CB5002001900090E8
:1001F0006C48006840F480306A49086000BF694874
:10020000006800F4003000900198401C01900098B4
:1002100018B90198B0F5A06FF1D16248006800F4F8
:10022000003010B10120009001E000200090009803
:10023000012843D15C48006840F010005A4908602A
:100240000846006820F0030008600846006840F097
:1002500002000860534840685249486008464068B8
:1002600048600846406840F480604860084640683E
:1002700020F47C1048600846406840F4E81048606C
:100280000846006840F08070086000BF454800687C
:1002900000F000700028F9D04248406820F00300C8
:1002A000404948600846406840F00200486000BF8E
:1002B0003C48406800F00C000828F9D10CBD10B58E
:1002C000FFF792FF10BD10B53648006840F00100FE
:1002D000344908600846406834490840314948605C
:1002E00008460068324908402E4908600846006800
:1002F00020F4802008600846406820F4FE00486032
:100300004FF41F008860FFF7DAFF4FF000602949C3
:10031000086010BD10B5002100200022214B5B6851
:1003200003F00C0121B1042906D0082928D107E0E7
:10033000214B224C236027E01F4B204C236023E0FD
:10034000184B5B6803F47010164B5B6803F4803243
:10035000022303EB904022B9194B4343174C23600F
:100360000DE0104B5B6803F4003323B1144B43439F
:10037000124C236003E0104B4343104C236003E016
:100380000D4B0E4C236000BF00BF064B5B68C3F3F0
:1003900003130C4CE15C094B1B68CB40074C2360FA
:1003A00010BD000000100240002002400000FFF8D5
:1003B000FFFFF6FE08ED00E000127A0000000020CA
:1003C00000093D00040000201748806940F010003B
:1003D000154988611548406820F470401349486009
:1003E0000846406840F4405048600846C068C8600D
:1003F00070472DE9F04107460C46154600260EE0F1
:1004000001200B490860384601F0DDFA0020094957
:10041000C1F8AC01204601F0D6FA701CC6B2AE425B
:10042000EEDBBDE8F081000000100240001001404A
:10043000AC0122420000224208B50121202006F032
:100440002BFBBD20ADF8000048208DF80300694665
:10045000D14806F045F808BD10B5D048006880B90D
:10046000CF480078002877D1032001F0ACFACB48C0
:100470000068002870D10120C9490870C949087076
:100480006AE0C6480C38006888B9C548007800287A
:1004900062D1032001F097FAC0480C3800680028A8
:1004A0005AD10120BE490870BF49087054E0BB48CA
:1004B0000838006888B9BA48007800284CD1032071
:1004C00001F081FAB54808380068002844D10120BD
:1004D000B3490870B54908703EE0B0481438006868
:1004E00078B9AF480078F8B9032001F06CFAAB484E
:1004F00014380068C0B90120A9490870AC490870D7
:100500002AE0A6481038006878B9A548007858B99C
:10051000032001F058FAA1481038006820B90120E2
:100520009F490870A349087016E09C481C38006871
:1005300078B99B48007878B9032001F044FA9748CD
:100540001C38006840B90120954908709A49087024
:1005500002E000209249087010BD10B5FFF77CFF43
:100560009048007801280BD100208E4908700122A4
:10057000C8210846FFF73DFF0121002003F01CFAC7
:100580008948007801280BD1002087490870002194
:10059000084603F011FA0122C8210846FFF729FF97
:1005A0008248007801280BD1002080490870012181
:1005B000084603F001FA01226421C820FFF719FF61
:1005C0007B48007801280BD1002079490870002170
:1005D000012003F0F1F901226421C820FFF709FF8F
:1005E00074480078012807D1002072490870012260
:1005F00032210846FFF7FDFE6F48007801287DD1C3
:1006000000206D490870012232210846FFF7F1FEF3
:100610004FF4A0706949086001220421674805F081
:10062000CAFC664800686649086066496648674AC9
:10063000C2E900100A220821644805F057FC63480B
:10064000D0E90010624AC2E900101E20614908602A
:10065000192204215F4805F049FC5E4800685E49A4
:1006600008605E485E495F4A03C2232208215D4854
:1006700005F03CFC5B48D0E900105B4AC2E9001081
:10068000D4205A49086032220421584805F02EFC33
:1006900056480068564908600A20564908603C22BE
:1006A0000421544805F022FC524800685249086071
:1006B0003C205249086046220421504805F016FCAF
:1006C0004E4800684E49086050204E49086050224C
:1006D00004214C4805F00AFC4A4800684A49086071
:1006E00040F6CA00494908605A220421474805F0EB
:1006F000FDFB464800684649086000E04BE040F6D4
:1007000098004449086064220421424805F0EEFB49
:10071000404800684049086040F675003F4908605D
:100720006E2204213D4805F0E1FB3C4800683C494D
:10073000086040F6CA003B49086078220421394825
:1007400005F0D4FB374800683749086040F68E0052
:100750003649086082220421344805F0C7FB33483B
:100760000068334908606E20324908608C220421F9
:10077000304805F0BBFB2F4800682F490860BE20B9
:100780002E490860962204212C4805F0AFFB2B4827
:1007900000682B49086010BD001401401C812242F2
:1007A0001400002015000020160000201700002073
:1007B00018000020190000201A000020B8000020B6
:1007C00040000020295C8FC2F528DC3FC0000020DB
:1007D00048000020C800002078000020EE7C3F3553
:1007E0005EBAD53FD000002050000020D800002085
:1007F0007C000020DC00002080000020E0000020C1
:1008000058000020E40000205C000020E8000020E8
:1008100060000020EC00002064000020F0000020B8
:1008200068000020F40000206C000020F800002088
:10083000700000200001002084000020FC00002047
:100840008800002008B50121102006F025F90420B9
:10085000ADF8000010208DF8030003208DF8020091
:100860006946044805F03CFE0421024805F0E5FE17
:1008700008BD0000001001407FB505460C4601216F
:10088000082006F016F9ADF80850ADF80440002035
:10089000ADF80A00ADF8060001A9FE4806F034FAEA
:1008A00001221146FB4806F0A6FD32208DF800001B
:1008B00000208DF8010003208DF8020001208DF842
:1008C0000300684605F0B5FC0121F24806F078FD0A
:1008D0007FBD7FB505460C460121084606F0E9F8C4
:1008E000ADF80850ADF804400020ADF80A00ADF8AE
:1008F000060001A94FF0804006F006FA01221146D9
:10090000900706F078FD1C208DF8000001208DF87E
:10091000010003208DF8020001208DF803006846D5
:1009200005F087FC0121880706F04AFD7FBD00B570
:1009300089B00121D74807F00CF800287ED00121AA
:10094000D44807F017F8D448007800B3D3480078AB
:10095000D1490978884207D0CF480078401ED04955
:1009600008700020CF490880CB480078CB49087038
:10097000CB48007858B1CB480088401CC949088052
:1009800008460088C82803DA0120C749086010E03B
:10099000C4480088B0F5FA7F03DA0020C249086035
:1009A00007E00020BF490880BD480078401EBC49D0
:1009B00008700120BD490870BD48007802287CD12C
:1009C000BB484069401CBA494861084690F872002B
:1009D000012845D10846C06F07900846C0680690B8
:1009E000079907F0E9FC33D2B1484068B049886103
:1009F00008464069486308464069069007F058FC7D
:100A00000790AB48806F01460690079807F04FFAB1
:100A1000A749C86008464069049007F049FC059062
:100A2000A348C06801460490059807F040FA4FF0CB
:100A30008041069007F06DFA9E4900E0F3E30790CD
:100A400007F0DDF99A49886008468068486585E1C5
:100A5000974890F87200401C954981F872007DE13A
:100A6000934890F87200022874D19148C068002120
:100A7000079007F0ABFC64D28D484168C1614169C1
:100A80008163808A8A49898E401A8949A1F8700059
:100A90000846B0F87000059007F00AFC06908448FC
:100AA000806F01460590069807F001FA079080488C
:100AB000C06F01460690079800E069E107F0F4F97D
:100AC0007B49C8600846B0F87000029007F0F0FB60
:100AD00004907748B0F87000019007F0E9FB0290AD
:100AE0007348806F01460190029807F0E0F9039087
:100AF000049907F0DCF94FF08041059007F009FAFE
:100B000007906B48B0F87000039007F0D1FB049099
:100B10006748C06F01460390049807F0C8F9059034
:100B20006348406D01460490059807F068F9069007
:100B3000079907F0B6F95E498860084681688165C3
:100B40000CE15B4890F87200401C594981F8720032
:100B500004E1FFE7564890F8720003281FD154487B
:100B60000169C069081A5249496888420FD950483A
:100B7000416801624169C163B0F87400079007F0F1
:100B800097FB4B49886008468168C165E6E04848A4
:100B900090F87200401C464981F87200DEE044483B
:100BA00090F8720004284DD14148C06F079040482A
:100BB000C0680690079907F0FFFB3BD23C484168AC
:100BC000416241690164818A808F081A3849A1F81D
:100BD00070000846B0F87000069007F069FB0790B7
:100BE0003348806F01460690079807F060F9304956
:100BF000C8600846B0F87000049007F059FB0590F3
:100C00002B48C06801460490059807F050F94FF052
:100C10008041069007F07DF907902548C06D014698
:100C20000690079807F040F92149886008468168D6
:100C3000016693E01E4890F87200401C1C4981F840
:100C400072008BE01A4890F87200052879D1184894
:100C500080681849079007F0B9FB74D214484168BE
:100C6000816241694164818AB0F84000081A1049E4
:100C7000A1F870000846B0F87000059007F018FB66
:100C800006900B48806F01460590069807F00FF913
:100C9000079011E0000C00401E0000201F00002003
:100CA0002A00002028000020880122422C00002079
:100CB000580100200000C842F948C06F0146069064
:100CC000079807F0F1F8F649C8600846B0F87000D8
:100CD000019007F0EDFA0390F148B0F87000009031
:100CE00007F0E6FA0190EE48806F01460090019807
:100CF00007F0DDF80290039907F0D9F84FF0804132
:100D0000049007F006F90690E548B0F870000390EB
:100D100007F0CEFA0490E248C06F014603900498B1
:100D200007F0C5F80590069907F0BBF80790DC4876
:100D3000006E01460690079807F0B6F8D84988601B
:100D40000CE008E0FFE7D64890F87200401CD44958
:100D500081F8720002E0D348D1498860D0488068A9
:100D600001460790172001F02CF808900898B0F57C
:100D70007A7F51D34FF2B561089888424CD2012155
:100D8000880706F01DFB1721089801F036F843E0AC
:100D9000C3480078012823D1C348007D322148434D
:100DA0003230BF49A1F87400BF48C08A00EB800010
:100DB00040000A3008610846B0F87400069007F059
:100DC00077FA01460790172000F0FBFF08901721E3
:100DD000089801F012F80121880706F0F1FA1BE0EB
:100DE000AF480078032817D16420AD49A1F87400FA
:100DF0000846B0F87400069007F05AFA01460790CA
:100E0000172000F0DEFF08901721089800F0F5FF8A
:100E10000121880706F0D4FAA448007802287DD181
:100E2000A2484069401CA1494861084690F87200F8
:100E3000012843D10846C06F07900846C068069055
:100E4000079907F0B9FA31D2984840689749886104
:100E500008464069486308464069069007F028FA4A
:100E600007909248806F01460690079807F01FF898
:100E70008E49C86008464069049007F019FA059049
:100E80008A48C06801460490059807F010F84FF0B2
:100E90008041069007F03DF88549079006F0AFFFC6
:100EA000824988600846806848657AE17F4890F802
:100EB0007200401C7D4981F8720072E17B4890F815
:100EC0007200022874D17948C0680021079007F0A9
:100ED0007DFA64D275484168C16141698163808A45
:100EE0007249898E401A81B27048A0F87010B0F82B
:100EF0007000059007F0DCF906906C48806F0146A1
:100F00000590069806F0D3FF07906848C06F014629
:100F10000690079806F0C8FF644900E05BE1C860EE
:100F20000846B0F87000029007F0C2F904905F48DC
:100F3000B0F87000019007F0BBF902905B48806F39
:100F400001460190029806F0B2FF0390049906F062
:100F5000AEFF4FF08041059006F0DBFF079053484D
:100F6000B0F87000039007F0A3F904904F48C06FE9
:100F700001460390049806F09AFF05904B48406D97
:100F800001460490059806F03AFF0690079906F08E
:100F900088FF4649886008468168816501E14348C9
:100FA00090F87200401C414981F87200F9E0FFE7B7
:100FB0003E4890F8720003281FD13C480169C0697F
:100FC000081A3A49496888420FD93848416801628D
:100FD0004169C163B0F87400079007F069F93349BB
:100FE000886008468168C165DBE0304890F872008F
:100FF000401C2E4981F87200D3E02C4890F8720012
:10100000042857D12948C06F07902848C068069027
:10101000079907F0D1F93BD2244841684162416900
:101020000164818A808F081A2049A1F8700008465F
:10103000B0F87000069007F03BF907901B48806FEE
:1010400001460690079806F032FF1849C860084626
:10105000B0F87000049007F02BF905901348C068B1
:1010600001460490059806F022FF4FF0804106905B
:1010700006F04FFF07900D48C06D01460690079897
:1010800006F012FF0949886008468168016688E019
:10109000064890F87200401C044981F8720080E014
:1010A000580100200000C84208030020E801002089
:1010B00000004842FE4890F8720005286ED1FC48B6
:1010C0008068FC49079007F081F95FD2F8484168D1
:1010D000816241694164818AB0F84000081AF4498C
:1010E000A1F870000846B0F87000059007F0E0F82D
:1010F0000690EF48806F01460590069806F0D7FEEF
:101100000790EB48C06F01460690079806F0CCFEAA
:10111000E749C8600846B0F87000019007F0C8F8C9
:101120000390E348B0F87000009007F0C1F8019018
:10113000DF48806F01460090019806F0B8FE0290EB
:10114000039906F0B4FE4FF08041049006F0E1FEF2
:101150000690D748B0F87000039007F0A9F8049003
:10116000D348C06F01460390049806F0A0FE059096
:10117000069906F096FE0790CD48006E014606904F
:10118000079806F091FECA4988600AE0C84890F8BE
:101190007200401CC64981F8720002E0C548C4498B
:1011A0008860C348806801460790172000F009FE58
:1011B00008900898B0F57A7F52D34FF2B56108983D
:1011C00088424DD21721089800F044FE0121BA4808
:1011D00006F0F6F844E0B6480078012824D1B74874
:1011E000007D322148433230B149A1F87400B34840
:1011F000C08A00EB80004000401D08610846B0F83E
:101200007400069007F054F801460790172000F08C
:10121000D8FD08901721089800F01CFE0121A6486F
:1012200006F0CEF81CE07FE2A1480078032817D131
:1012300050209F49A1F874000846B0F87400069049
:1012400007F036F801460790172000F0BAFD089025
:101250001721089800F0FEFD0121974806F0B0F82C
:101260009748007802287DD195484069401C9449F0
:101270004861084690F87200012842D10846C06FC4
:1012800007900846C0680690079907F095F830D295
:101290008B484168816140698949486308464069D3
:1012A000069007F005F807908548806F0146069084
:1012B000079806F0FCFD8249C86008464069049022
:1012C00006F0F6FF05907E48C06801460490059838
:1012D00006F0EDFD4FF08041069006F01AFE7949C8
:1012E000079006F08CFD764988600846806848655E
:1012F00096E1734890F87200401C714981F87200C1
:101300008EE16F4890F8720002287DD16C48C06869
:101310000021079007F05AF87BD26948B0F87400B2
:10132000069006F0C5FF0790654880680146069064
:10133000079807F04BF86CD261484069B0F5FA7F26
:1013400067D25F484168C16141698163808A5C49B5
:10135000898E401A5A49A1F870000846B0F870000A
:10136000059000E076E106F0A3FF06905448806FF8
:1013700001460590069806F09AFD07905048C06F08
:1013800001460690079806F08FFD4D49C860084653
:10139000B0F87000029006F08BFF04904848B0F857
:1013A0007000019006F084FF02904548806F01466E
:1013B0000190029806F07BFD0390049906F077FDFA
:1013C0004FF08041059006F0A4FD07903C48B0F82E
:1013D0007000039006F06CFF04903948C06F01461E
:1013E0000390049806F063FD05903548406D014672
:1013F0000490059806F003FD0690079906F051FD4C
:101400002F498860084601E00BE002E081688165B1
:1014100006E12B4890F87200401C294981F87200BF
:10142000FEE0274890F8720003281FD12448016984
:10143000C069081A2249496888420FD92048416882
:1014400001624169C163B0F87400079006F030FF93
:101450001B49886008468168C165E1E0184890F83A
:101460007200401C164981F87200D9E0144890F8C7
:10147000720004285BD11248C06F07901048C06802
:101480000690079906F098FF48D20D4841684162DE
:1014900041690164818A808F081A81B20848A0F8E6
:1014A0007010B0F87000069006F002FF07900BE095
:1014B000E801002000004842000800400803002026
:1014C000780200200000C8429E48806F01460690C6
:1014D000079806F0ECFC9B49C8600846B0F870001D
:1014E000049006F0E5FE05909648C0680146049019
:1014F000059806F0DCFC4FF08041069006F009FDEF
:1015000007909048C06D01460690079806F0CCFC05
:101510008C49886008468168016681E0894890F8B6
:101520007200401CC1B2874880F8721078E085488C
:1015300090F87200052870D182488068824907902F
:1015400006F044FF5FD27F4841688162416941648F
:10155000818AB0F84000081A81B27A48A0F8701069
:10156000B0F87000059006F0A3FE06907548806FF5
:1015700001460590069806F09AFC07907148C06FE6
:1015800001460690079806F08FFC6E49C860084631
:10159000B0F87000019006F08BFE03906948B0F837
:1015A0007000009006F084FE01906648806F01464E
:1015B0000090019806F07BFC0290039906F077FCFE
:1015C0004FF08041049006F0A4FC06905D48B0F80E
:1015D0007000039006F06CFE04905A48C06F0146FC
:1015E0000390049806F063FC0590069906F059FCF8
:1015F00007905448006E01460690079806F054FC88
:10160000504988600CE04F4890F87200401CC1B20D
:101610004C4880F8721003E0FFE74B484949886066
:101620004848806801460790172000F0CAFB0890E0
:101630000898B0F57A7F51D34FF2B5610898884287
:101640004CD21721089800F0EEFB01213F4805F02D
:10165000B7FE43E03B480078012823D13C48007D99
:101660003221484332303749A1F874003848C08AE3
:1016700000EB80004000143008610846B0F87400A8
:10168000069006F015FE01460790172000F099FB22
:1016900008901721089800F0C6FB01212B4805F09F
:1016A0008FFE1BE027480078032817D164202549C6
:1016B000A1F874000846B0F87400069006F0F8FD32
:1016C00001460790172000F07CFB0890172108982E
:1016D00000F0A9FB01211D4805F072FE00F058F84A
:1016E0001C48008820B11B480088401E194908800A
:1016F00019480078134909780144184800780844CB
:10170000174908701748008820B116480088401E05
:101710001449088014480088002805DD1248008814
:10172000401E81B21048018009B000BD10B50121F2
:10173000880706F00EF918B10121880706F01AF99A
:1017400010BD0000780200200000C84200040040E4
:10175000080300203000002058010020E80100208C
:101760002E000020260000202400002070B5054631
:101770000C4645F2555005F001F8284605F001F8F1
:10178000204605F001F805F002F805F005F870BDF7
:1017900010B504F0FCFF10BD10B500F0D7F8FFF74E
:1017A00051F8FEF711FEFEF747FE00F05BF901F07D
:1017B00095FC00F0B9F904F04CFA4FF4E13002F076
:1017C00095FB4FF4E13003F03BFC00F029F941F6C2
:1017D0001F410920FFF750F840F6B8310620FFF707
:1017E000C5FF002048490870002113E0002007E0F1
:1017F000002367224243454C2244521C1354401C90
:101800006428F5DB012267204843404B184480F8E8
:101810006620491C1429E9DB04F02BF93C4903C973
:101820003B4A03C23A48D0E90010083AC2E9001026
:10183000384800683749086008460068086036483C
:10184000006835490860084600680860334903C9E4
:10185000324A03C23148D0E90010083AC2E9001008
:101860002F4800682E4908600846006808602D4827
:1018700000682C4908600846006808602A4800682B
:101880002949086008460068086028480068274918
:101890000860084600680860254800682449086018
:1018A0000846006808602348006822490860084626
:1018B00000680860204800681F4908600846006802
:1018C00008601E4800681D490860084600680860F6
:1018D0001B4800681A4908600846006808601948F3
:1018E00000681849086008460068086016480068E3
:1018F0001549086008460068086001223221084640
:10190000FEF777FD10BD00009300002024030020A7
:10191000C0000020B8000020C8000020D000002037
:10192000D8000020DC000020E0000020E4000020BF
:10193000E8000020EC000020F0000020F40000206F
:10194000F800002000010020FC00002010B56FF01E
:10195000040004F0B8FC2E4800682E49B0FBF1F0FA
:101960002D4908700846007800EB4001C1EBC0101B
:101970004FF6FF7101EAC0002849088010BD0146FA
:10198000254A12784A434FF0E0235A6100229A61B7
:101990001A46126942F001021A6100BF4FF0E022BC
:1019A000106900F001021AB100F48032002AF5D06B
:1019B0004FF0E022126922F001024FF0E0231A6199
:1019C00000229A6170470146144A12884A434FF038
:1019D000E0235A6100229A611A46126942F001021C
:1019E0001A6100BF4FF0E022106900F001021AB145
:1019F00000F48032002AF5D04FF0E022126922F084
:101A000001024FF0E0231A6100229A617047000042
:101A10000000002000127A00380000203A00002068
:101A200010B500214FF0006004F035FC4FF4A060C9
:101A300004F0FAFB10BD012080F3138800BF00BF43
:101A40000648006800F4E06005490843001D0349AA
:101A50000860BFF34F8F00BF00BFFEE70CED00E052
:101A60000000FA0508B501215C2005F015F80121F8
:101A7000084605F011F80121264804F002FE48F25C
:101A80002000ADF8000010208DF8030003208DF831
:101A900002006946204804F023FD48F220011E4858
:101AA00004F0CDFD8020ADF8000010208DF803007B
:101AB00003208DF802006946184804F011FD8021CA
:101AC000164804F0BCFD0B20ADF8000010208DF886
:101AD000030003208DF802006946114804F000FD60
:101AE0000B210F4804F0ABFD9520ADF8000010204D
:101AF0008DF8030003208DF802006946094804F0C0
:101B0000EFFC1521074804F098FD8021054804F0FA
:101B100096FD08BD0002300000080140000C0140A5
:101B200000100140001801401FB501213C2004F0C5
:101B3000B3FF0121084604F0AFFF0121084604F07D
:101B4000B8FF0121022004F0B4FF0121042004F0B9
:101B5000B0FF4220ADF80C0018208DF80F000320D4
:101B60008DF80E0003A9FC4804F0BAFC0120ADF882
:101B70000C0018208DF80F0003208DF80E0003A92B
:101B8000F64804F0ADFC0020F549C8804880087292
:101B90004FF0804005F0B8F86020F249088001203D
:101BA0004880042088800020088148814FF08040D0
:101BB00005F0E7F80821C80605F032FD00214FF0D6
:101BC000804005F0FDFB0020E549C8804880087290
:101BD000E54805F099F86020E24908800120488036
:101BE00004208880002008814881DF4805F0A3F99F
:101BF0000821DD4805F033FD0021DB4805F0E0FB5E
:101C00000020D7490880C88048800872D74805F06E
:101C10007BF86020D3490880012048800420888018
:101C2000002008814881D14805F0ABF80821CF4851
:101C300005F0F6FC0021CD4805F0C2FB0220ADF80E
:101C40000C0048208DF80F0003A9C44804F048FC9C
:101C50000121002004F05AFD0220019000208DF89F
:101C6000080008208DF8090001208DF80A0001A85D
:101C700004F056FB07208DF8000001208DF80100CC
:101C80008DF802008DF80300684604F0D2FA0120B6
:101C9000ADF80C0048208DF80F0003A9AE4804F001
:101CA0001FFC0021012004F031FD012001900020E3
:101CB0008DF8080008208DF8090001208DF80A0031
:101CC00001A804F02DFB06208DF8000001208DF8FE
:101CD000010003208DF8020001208DF80300684602
:101CE00004F0A7FA1020ADF80C0048208DF80F0082
:101CF00003A99F4804F0F4FB0421022004F006FD30
:101D00001020019000208DF8080008208DF80900AF
:101D100001208DF80A0001A804F002FB0A208DF8CA
:101D2000000001208DF8010002208DF80200012042
:101D30008DF80300684604F07CFA1520ADF80C001D
:101D400010208DF80F0003208DF80E0003A989489C
:101D500004F0C6FB1521874804F071FC1020ADF893
:101D60000C008DF80F0003208DF80E0003A97B48AE
:101D700004F0B6FB2020ADF80C0010208DF80F0009
:101D800003208DF80E0003A9794804F0A9FB4FF455
:101D90008050ADF80C0010208DF80F0003208DF856
:101DA0000E0003A96C4804F09BFB4FF4E070ADF803
:101DB0000C0048208DF80F0003A9684804F090FB40
:101DC0001FBD2DE9F04104460D46601C06F070FA77
:101DD00007462946384606F06AF8074639466648F7
:101DE00006F097F880464FF07E5106F05AF8064606
:101DF000304606F080FABDE8F08170B504460D4625
:101E00004FF0804005F093FDA04204D900214FF02F
:101E1000804005F069FD4FF080418C850D85C4F34D
:101E20004F00888670BD70B504460D464E4805F0DB
:101E30007EFDA04203D900214B4805F055FD4A49DB
:101E40002C310C80091F0D80C4F34F0046494031EE
:101E5000088070BD70B504460D46444805F067FD26
:101E6000A04203D90021414805F03EFD3F492C31F5
:101E70000C80091F0D80C4F34F003C4934310880A9
:101E800070BD2DE9F05F82468B469146BBF1000F95
:101E900061D13A48C0F89491394880F88490394823
:101EA000006820B9B9F1000F01D1BDE8F09F3448B6
:101EB000007800284ED13248C0F810A032480CC833
:101EC0000020324906F07CF905460E46504606F0E1
:101ED00005FA07462A46334606F03AFA5ED24FF430
:101EE000FA702749A1F87400B1F874108900A1F5BF
:101EF000C87006F0D4F90546254906F00AF82049CD
:101F0000C867B1F87410C900A1F5487006F0C7F9A8
:101F10000546204905F0FDFF194988671E4888607D
:101F200000204860486100240CE00021144818306B
:101F300040F824101C3040F82410203040F82410C1
:101F4000601CC4B2072CF0DB02200D490870012090
:101F500081F872005FE2AAE0000C01400008014035
:101F60004C0100203C01002000040040000800401B
:101F700000100140001801404054894C00002242EA
:101F800058010020188122424800002000407F4074
:101F90000000C84300409C470000C842FA480CC8F3
:101FA0000020FA4906F00CF905460E46504606F0A8
:101FB00095F907462A46334606F0CAF93BD24FF454
:101FC0004870F349A1F87400B1F874108900A1F5C4
:101FD000C87006F064F90546EE4905F09AFFEC4931
:101FE000C867B1F87410C900A1F5487006F057F938
:101FF0000546E94905F08DFFE5498867E7488860AF
:1020000000204860486100240CE00021E0481830BE
:1020100040F824101C3040F82410203040F82410E0
:10202000601CC4B2072CF0DB0220D94908700120E3
:1020300081F87200EFE140F26C70D549A1F87400AC
:10204000B1F874108900A1F5C87006F028F90546AA
:10205000D34905F05EFFCE49C867B1F87410C900D6
:10206000A1F5487006F01BF90546CE4905F051FF71
:10207000C7498867C94888600020486048610024D3
:102080000CE00021C248183040F824101C3040F801
:102090002410203040F82410601CC4B2072CF0DB60
:1020A0000220BB490870012081F87200B3E1BBF146
:1020B000010F7DD1BC48C0F8B091BC4880F8849035
:1020C000BB48006818B9B9F1000F00D1EDE6B74878
:1020D00000780028AED1B548C0F810A0B5480CC8AB
:1020E0000020B54906F06CF805460E46504606F04D
:1020F000F5F807462A46334606F02AF93AD2782000
:10210000AA49A1F87400B1F87410C900A1F5C8700B
:1021100006F0C5F80546A94905F0FBFEA349886706
:10212000B1F874108900A1F1C80006F0B8F80546AE
:102130009A4905F0EEFE9D49C867A14888600020D5
:102140004860486100240CE000219848183040F8AD
:1021500024101C3040F82410203040F82410601C5B
:10216000C4B2072CF0DB022090490870012081F8EE
:10217000720050E18F480CC80020924906F020F808
:1021800005460E46504606F0A9F807462A4633464D
:1021900006F0DEF83CD2C8208449A1F87400B1F8FA
:1021A0007410C900A1F5C87006F079F8054600E082
:1021B000B7E0854905F0ADFE7C498867B1F8741039
:1021C0008900A1F1C80006F06AF805467F4905F0CC
:1021D000A0FE7649C8677A48886000204860486158
:1021E00000240CE000217148183040F824101C3005
:1021F00040F82410203040F82410601CC4B2072C92
:10220000F0DB022069490870012081F8720002E1C8
:1022100068480CC800206E4905F0D2FF05460E46FE
:10222000504606F05BF807462A46334606F090F81B
:102230003BD24FF448705D49A1F87400B1F87410B6
:102240008900A1F1C80006F02AF80546514905F0B9
:1022500060FE5649C867B1F87410C900A1F5C8708E
:1022600006F01DF805464C4905F053FE4F498867B6
:102270005348886000204860486100240CE0002139
:102280004A48183040F824101C3040F82410203000
:1022900040F82410601CC4B2072CF0DB0220434934
:1022A0000870012081F87200B5E040F24C403F49CF
:1022B000A1F87400B1F874108900A1F1C80005F00C
:1022C000EEFF0546434905F024FE3849C867B1F8DA
:1022D0007410C900A1F5C87005F0E1FF05463E493C
:1022E00005F017FE3149886735488860002048604E
:1022F000486100240CE000212C48183040F82410DC
:102300001C3040F82410203040F82410601CC4B267
:10231000072CF0DB022025490870012081F87200AB
:1023200079E02E48C0F890912D4880F8849000788C
:1023300040BB2B48C0F810A04FF42F702849A1F8DB
:102340007400B1F874108900A1F5C87005F0A7FFFA
:102350000546244905F0DDFD2149C867B1F8741030
:10236000C900A1F5487005F09AFF05461E4905F021
:10237000D0FD1B4988670948886000204860486193
:1023800000243FE047E00000480000200070974034
:10239000580100200000FA440024F4490000C8421B
:1023A00000803B454054894A00802142E8010020DA
:1023B00028012342500000200000494000409C4575
:1023C0000000484200407F4000409C470000C84356
:1023D00000408F4000007A450024F44A000021426A
:1023E0007802002000007A440024F4480021FE48CE
:1023F00040F824101C3040F82410203040F82410FD
:10240000601CC4B2072CF1DB0220F74918390870B0
:10241000012081F8720000BF47E52DE9F34F83B03A
:102420008A46039805F05AFFCDE90001EF480CC831
:10243000009805F0C5FE074605F0A2FF0290EC49A2
:10244000D1F8800005F034FF0746029905F0B4FF8B
:102450000ED20126E649D1F8800005F029FF80461A
:10246000029905F021FD074605F045FF04460DE001
:102470000026DF49D1F8800005F01AFF8046029956
:1024800005F00FFD074605F036FF0446504605F0FF
:1024900025FF0746D7480CC8384605F091FECDE920
:1024A000000105F06DFF8346D349D1F8800005F0A7
:1024B000FFFE0746594605F07FFF0FD24FF0010996
:1024C000CD49D1F8800005F0F3FE8046594605F06D
:1024D000EBFC074605F00FFF05460EE04FF0000944
:1024E000C549D1F8800005F0E3FE8046594605F065
:1024F000D8FC074605F0FFFE05463246002120467F
:10250000FFF7BFFC4A4601212846FFF7BAFC05B099
:10251000BDE8F08F10B5B4481838007800287DD099
:10252000B6480068D0BBB548001D0068B0BBB348D2
:102530000830006890BBAC48183890F88400012837
:102540002CD1A94818384068C82827D9AC48407908
:1025500020BBAC480078401CAA49087008460078A7
:10256000012808D1A04818380069A7490968401A0D
:102570009D491839486000BF9B48183800780028EA
:10258000FAD19949183908700021A04804F018FFC1
:1025900000209C49087094491839086597480068DC
:1025A000C8BB9648001D0068A8BB94480830006866
:1025B00088BB8D48183890F8840060BB8A4818386A
:1025C0004068C82827D98E48407920BB90480078B9
:1025D000401C8F49087008460078012808D18248BD
:1025E000183800698B490968401A7F4918394860D2
:1025F00000BF7D48183800780028FAD17A49183988
:1026000008700021814804F0DBFE0020764918396B
:1026100008657F4908708048006800E072E0B0BB40
:102620007D481438006890BB7548407901282ED148
:102630006D48183890F8840048BB6B4818384068DB
:102640000A2824D972480078401C7149087008464D
:102650000078012806D16448183800693238624988
:102660001839486000BF6048183800780028FAD14F
:102670005D49183908700021644804F0A1FE00206B
:10268000594918390865624908705D4948716248BE
:102690000068B8BB60481438006898BB5848407957
:1026A00001282FD15048183890F88400012829D1EA
:1026B0004D48183840680A2824D955480078401CED
:1026C0005349087008460078012806D14648183852
:1026D0000069323844491839486000BF4248183808
:1026E00000780028FAD1404918390870002147487D
:1026F00004F066FE00203C4918390865444908701A
:102700003F49487110BD0122394B83F88420434A68
:1027100011601A46106100225A6003221A70704735
:1027200010B53548007800283CD03B480C3800688C
:1027300090B9314890F8840001280DD1012232214E
:102740000846FDF756FE00202B490870002134484A
:1027500004F036FE00F008FD2F48001F006860B945
:10276000254890F8840040B9002023490870C1F83A
:10277000800000212A4804F023FE27482038006802
:1027800080B91D4890F8840001280BD100201A4917
:1027900008700021224804F013FE05223221084669
:1027A000FDF727FE1248007800287DD01D480068FC
:1027B000E0BB0F4890F88400C0BB00200C490870B3
:1027C00000214FF0804004F0FBFD4FF4FA70FFF75A
:1027D000FAF8012114480068FFF795FF00BF04488C
:1027E00000780028FBD122E0900200204800002061
:1027F0005801002050000020E80100200C812142F7
:102800008C000020760000205C00002000040040C6
:1028100077000020580000202C012342940122421E
:1028200000080040188122424000002005E0FE49D7
:10283000C1F880000120FD490871FD48006880B999
:10284000F94890F8840060B90020F7490870002129
:102850004FF0804004F0B4FD052232210846FDF718
:10286000C8FDF448006860B9EF4890F8840001287A
:1028700007D10020EC49087000214FF0804004F09F
:102880009FFDEC482C38006870B9E74890F8840048
:1028900001280ED10020E449087000214FF080404B
:1028A00004F08EFD052200E003E032210846FDF72A
:1028B000A0FD10BD10B504466CB90020DC496031A4
:1028C0000860D94981F8840048604CF250300861B2
:1028D0000320087039E00120D7490860D74981F802
:1028E0008400C8200861002048600320087018E0B8
:1028F00001F04DFCCF481838006890B9CF4890F8E7
:10290000840001280DD10020CC4908700021CC485A
:1029100004F056FD00F028FC012232210846FDF7A4
:1029200068FDC64800780028E2D14FF4FA70FFF73E
:102930004AF80020C0490860C04981F88400486016
:102940004CF2503008610320087010BD2DE9FC5F87
:10295000022003F05CFDB448007800287ED0B24825
:102960004068401CB0494860084690F8840001283F
:1029700006D10846D0F88000401CC1F880000AE06B
:10298000A948D0F8800030B1A748D0F88000401E98
:10299000A549C1F88000A4484068A3490969884254
:1029A0005CD300214FF0804004F00AFDA34800787A
:1029B00010B90220A349087000209B4908704860A4
:1029C0008860C8600861486181F87200A1F87000F1
:1029D000A1F874008867C8670846007800287CD191
:1029E0009948407B0128FAD10020974948738E49C5
:1029F000D1F8800005F072FCCDE9000193480CC8C5
:102A0000009805F06BFB80460022914B05F0BFFA61
:102A1000064600228F4B05F0D3FB044605F07FFCF1
:102A20008D4908708049D1F8800005F057FC804638
:102A300086480CC8404605F051FB06460022844BF0
:102A400005F0A5FA04460022844B05F0B9FBCDE958
:102A5000000105F064FC00F0FF0B00E0A5E04FEA88
:102A6000EB700BEB10600012ABEB00207A49487062
:102A70007249D1F8800005F031FC064678480CC850
:102A8000304605F02BFB80460022714B05F07FFAA3
:102A90000022704BCDE9000105F092FB044605F0E1
:102AA0003EFC6D4988706549D1F8800005F016FC40
:102AB00080466B480CC8404605F010FB06460022D5
:102AC000634B05F064FA04460022644B05F078FB82
:102AD000CDE9000105F023FC00E051E000F0FF0B20
:102AE0004FEAEB700BEB10600012ABEB00205A4981
:102AF000C8705C48006D002802DA0120087102E00D
:102B00000020554908715749086D05F0D6FB064667
:102B1000554A564B05F0E2FA804600224C4B05F030
:102B200036FA044600224D4B05F04AFBCDE9000180
:102B300005F0F5FB00F0FF0B4FEAEB700BEB1060BC
:102B40000012ABEB0020444948713F48C08AB0F501
:102B50007A7F04D03C48807D401C887102E0F020E0
:102B60003D4988713848007D3B49C87108460021BD
:102B700061236D22CDE900100221012001F032F91C
:102B80004FF0000A0EE000212748183040F82A10C4
:102B90001C3040F82A10203040F82A100AF10100B9
:102BA00000F0FF0ABAF1070FEDDBBDE8FC9F2DE94D
:102BB000FC5F012003F02BFC2A48007800287CD021
:102BC00028484068401C27494860084690F884001F
:102BD000012804D10846006D401C086504E0214826
:102BE000006D401E1F4908651E4840681D4909695F
:102BF000884262D300211E4804F0E2FB00201949FC
:102C0000087048608860C8600861486181F8720097
:102C1000A1F87000A1F874008867C86708460078BA
:102C200000287DD1084825E0580100208C000020B4
:102C30003401224238012342B0812142E8010020C0
:102C40000008004075000020080300204800002014
:102C50000000E03F00007040950000200000F03FC1
:102C600050000020780200200AD7A3703D0AB73F29
:102C700000040040407B0128D3D10020FE49487366
:102C8000FE49D1F8800005F029FBCDE90001FC48A0
:102C90000CC8009805F022FA80460022F94B05F096
:102CA00076F906460022F84B05F08AFA044605F04C
:102CB00036FBF6490870F14900E0BFE0D1F880002A
:102CC00005F00CFB8046EE480CC8404605F006FABD
:102CD00006460022EB4B05F05AF904460022EC4B65
:102CE00005F06EFACDE9000105F019FB00F0FF0BCD
:102CF0004FEAEB700BEB10600012ABEB0020E349E6
:102D00004870E449D1F8800005F0E8FA0646E24848
:102D10000CC8304605F0E2F980460022D94B00E0AD
:102D200077E005F034F90022D74BCDE9000105F03A
:102D300047FA044605F0F3FAD4498870D549D1F82A
:102D4000800005F0CBFA8046D3480CC8404605F019
:102D5000C5F906460022CB4B05F019F904460022BE
:102D6000CB4B05F02DFACDE9000105F0D8FA00F0C3
:102D7000FF0B4FEAEB700BEB10600012ABEB002087
:102D8000C249C870C548006D002802DA01200871E8
:102D900002E00020BD490871C049086D05F08DFAB8
:102DA0000646BF4ABF4B05F099F980460022B54B55
:102DB00005F0EDF804460022B54B05F001FACDE927
:102DC000000105F0ACFA00F0FF0B4FEAEB700BEBE3
:102DD00010600012ABEB0020AC494871A648C08AD5
:102DE000B0F57A7F04D0A448807D401C887102E051
:102DF000F020A6498871A048007DA449C871084602
:102E0000002161236D22CDE900100221012000F094
:102E1000E9FF4FF0000A0EE00021A048183040F80A
:102E20002A101C3040F82A10203040F82A100AF1ED
:102E3000010000F0FF0ABAF1070FEDDBBDE8FC9FCF
:102E40002DE9FC5F102003F0E2FA92480078002898
:102E50007DD090484068401C8E494860084690F8F4
:102E60008400012806D10846D0F88000401CC1F833
:102E700080000AE08748D0F8800030B18548D0F85B
:102E80008000401E8349C1F8800082484068814923
:102E9000096988425BD30021834804F091FA77489E
:102EA000007810B902208149087000207949087023
:102EB000C860486088600861486181F87200A1F8C4
:102EC0007000A1F874008867C86708460078002879
:102ED0007ED16948407B0128FAD1002066494873B9
:102EE0006649D1F8800005F0F9F9CDE900016448A0
:102EF0000CC8009805F0F2F880460022614B05F0FE
:102F000046F806460022604B05F05AF9044605F0E3
:102F100006FA5E4908705949D1F8800005F0DEF9DB
:102F2000804657480CC8404605F0D8F806460022AF
:102F3000544B05F02CF804460022554B05F040F99F
:102F4000CDE9000105F0EBF900F0FF0B00E0C0E077
:102F50004FEAEB700BEB10600012ABEB00204B491B
:102F600048704C49D1F8800005F0B8F906464A4847
:102F70000CC8304605F0B2F880460022414B05F0FF
:102F800006F80022404BCDE9000105F019F904468E
:102F900005F0C5F93D4988703E49D1F8800005F03B
:102FA0009DF980463C480CC8404605F097F8064617
:102FB0000022344B04F0EBFF04460022344B05F0B2
:102FC000FFF8CDE9000105F0AAF900F0FF0B00E0E1
:102FD0004FE04FEAEB700BEB10600012ABEB002000
:102FE0002A49C8702D48006D002802DA01200871B6
:102FF00002E00020254908712849086D05F05DF9B7
:103000000646274A274B05F069F8804600221D4BEB
:1030100004F0BDFF044600221D4B05F0D1F8CDE9B8
:10302000000105F07CF900F0FF0B4FEAEB700BEBB1
:1030300010600012ABEB0020144948710E48C08AA2
:10304000B0F57A7F04D00C48807D401C887102E086
:10305000F0200E4988710848007D0C49C871084667
:10306000002161236D22CDE900100221012000F032
:10307000B9FE4FF0000A29E00803002058010020A3
:10308000480000200000E03F000070409500002054
:103090000000F03FE80100205000002078020020EE
:1030A0000AD7A3703D0AB73F000800407500002012
:1030B0000021094840F82A101C3040F82A1020301E
:1030C00040F82A100AF1010000F0FF0ABAF1070FD8
:1030D000EEDBBDE8FC9F00000002002008B50121E6
:1030E000682003F0D9FC3820ADF8000048208DF8A6
:1030F00003006946184803F0F3F94FF40050ADF8A7
:10310000000048208DF803006946144803F0E8F9F0
:103110004FF64070ADF8000048208DF80300694676
:103120000F4803F0DDF94FF4AB40ADF80000482044
:103130008DF8030069460B4803F0D2F948F64820A1
:10314000ADF8000048208DF803006946054803F0FB
:10315000C7F908BD70470000000C01400010014095
:10316000001401400018014010B50020FD4908700E
:1031700000214FF0804004F023F90020FA49087044
:103180000021FA4804F01CF90020F94908700021D8
:10319000F84804F015F90020F749C872087308824E
:1031A000C8810120F5490870F349C870887008711A
:1031B00048718871C871087248720020887210BD09
:1031C00070B504460D461646EB488079012874D147
:1031D000E948C079012879D10020E7498872C8718F
:1031E000012E45D108464078012802D108460078D2
:1031F00038B1E1484078022831D1DF480078012811
:103200002DD1012C15D1DE480078A04208D1DC4830
:10321000047022460221DB480068FEF732FE55E0CA
:10322000D748047022460221D7480068FEF729FEDD
:103230004CE0D3480078A04208D1D148047022461F
:103240000221D2480068FEF71CFE3FE0CC48047023
:1032500022460221CE480068FEF713FE36E0C84839
:10326000047022460221CB480068FEF70AFE2DE0DA
:10327000012C15D1C2480078A04208D1C048047082
:1032800022460221BF480068FEF7FBFD1EE0BC4855
:10329000047022460221BC480068FEF7F2FD15E0EA
:1032A000B7480078A04209D1B548047022460221EF
:1032B000B6480068FEF7E5FD08E017E0B048047086
:1032C00022460221B2480068FEF7DBFDA6480078DE
:1032D00000284ED10120A849C87108468079401CB9
:1032E00088714FF4FA70FEF76EFB42E0A2488079D5
:1032F00002281AD1A048C079012807D100209E4990
:10330000C871002201212846FEF7BBFD98480078CD
:1033100048BB01209849C87108468079401C8871D3
:103320004FF4FA70FEF74FFB23E0934880790328AF
:103330001AD19148C07901280DD100208E49C87159
:1033400084F001008E49087084F00102022140F6E9
:10335000C410FEF796FD8448007820B9864880792D
:10336000401C8549887104E001208349C871887137
:10337000887270BD70B504460D467F4800790128FB
:1033800018D17D48407901280AD100207A498872F5
:10339000487101207949087029462046FFF73DF819
:1033A0007648007802280AD173480079401C724997
:1033B000087104E00120704988720871487170BD7D
:1033C0007548006808B9012070470020FCE770B517
:1033D00004460D4616466848007A012875D16648AD
:1033E000407A00287AD00020634988724872012E02
:1033F00046D108464078012803D1084600781028B5
:1034000007D05D484078022831D15B480078112808
:103410002DD1012C15D15A480078A04208D1584826
:1034200004702246022157480068FEF72AFD55E045
:10343000534804702246022153480068FEF721FDDC
:103440004CE04F480078A04208D14D480470224615
:1034500002214E480068FEF714FD3FE04848047022
:10346000224602214A480068FEF70BFD36E0444838
:1034700004702246022147480068FEF702FD2DE055
:10348000012C15D13E480078A04208D13C48047078
:10349000224602213B480068FEF7F3FC1EE0384854
:1034A00004702246022138480068FEF7EAFC15E065
:1034B00033480078A04209D13148047022460221E5
:1034C00032480068FEF7DDFC08E017E02C48047085
:1034D000224602212E480068FEF7D3FC22480078DD
:1034E00000286CD12448007A401C2349087201202E
:1034F00048724FF4FA70FEF766FA60E01E48007AF0
:10350000022819D11C48407A38B100201A49487263
:10351000012211462846FEF7B4FC15480078E8BBA6
:103520001548007A401C14490872012048724FF473
:10353000FA70FEF748FA42E00F48007A032839D1C2
:103540000D48407A68B184F001000D49087084F09C
:103550000102022140F6C410FEF793FC0020064948
:1035600048721CE05801002078020020000400404E
:10357000E80100200008004008030020750000203A
:1035800092000020680000206400002070000020ED
:103590006C00002060000020300123420FE0FC4856
:1035A000007860B90120FB4948720846007A401C47
:1035B000087204E00120F74948720872887270BDF1
:1035C0007CB504460D46F348C07A01281BD1F1486A
:1035D000C07801282BD129462046FFF7CBFEED48C5
:1035E000807A0128F2D1EB48007820280CD10620FF
:1035F000E849C8700020052161236D22CDE9001043
:10360000032100F0EFFBD1E00020022161236D22B5
:10361000CDE90010032100F0E5FBDE48C078401C36
:10362000DC49C8704FF4FA70FEF7CDF9BEE0D94816
:10363000C07802283FD1D749097801F0010181F013
:1036400001000022D4490968FFF7C1FED148807A01
:103650000128D8D1CF48407858B9002003216123F0
:103660006D22CDE9001000F0BDFB0520C949C870EE
:103670009CE04FF44870FEF7A6F9FFF7A1FE40B1B9
:10368000052232210846FCF7B4FE0520C149C87066
:1036900069E00020032161236D22CDE9001000F0D4
:1036A000A1FBBC48C078401CBA49C8704FF4FA70FE
:1036B000FEF789F97AE0B748C078032826D1B548E3
:1036C0004078012803D0B348407802286ED1B14A2F
:1036D000128B323291B2AF4A508BFFF74BFEAD489E
:1036E000807A012862D10020042161236D22CDE976
:1036F0000010032100F076FBA648C078401CA549C5
:10370000C8704FF4FA70FEF75EF94FE0A148C07838
:10371000042823D19F494978491009B9012100E0C3
:103720000021084601229D490968FFF749FD994893
:10373000807A01283AD10020052161236D22CDE94C
:103740000010032100F04EFB9248C078801C914984
:10375000C8704FF4FA70FEF736F927E08D48C0784C
:10376000052819D100BF8B49097801F0010181F0CA
:103770000100002288490968FFF722FD8548807A08
:10378000012813D18348C078401C8249C8704FF487
:10379000FA70FEF718F909E0FFF7E6FC01207D4911
:1037A000C8700020C8728872C88108827CBD7CB550
:1037B00004460D467748007B012828D1754880785B
:1037C000012825D17348407818B9032071498870C1
:1037D00007E0704A128B0F3A91B26E4A508BFFF796
:1037E000C9FD6C48807A0128E7D1002002216123BD
:1037F0006D22CDE90010032100F0F4FA65488078CD
:10380000401C644988704FF4FA70FEF7DCF8D2E08F
:1038100060488078022832D15E494978491009B958
:10382000012100E00021084601225C490968FFF7F8
:10383000CEFD5848807A0128E9D14FF44870FEF750
:10384000C2F8FFF7BDFD40B1052232210846FCF762
:10385000D0FD05204F4988707EE0002003216123C0
:103860006D22CDE9001000F0BDFA4A488078401C76
:10387000484988704FF4FA70FEF7A5F89BE0454878
:10388000807803282CD129462046FFF773FD414854
:10389000807A0128BBD13F484078012803D03D48B9
:1038A0004078022809D10020042161236D22CDE94E
:1038B0000010032100F096FA08E0002002216123A5
:1038C0006D22CDE90010032100F08CFA3148807898
:1038D000401C304988704FF4FA70FEF774F86AE0C3
:1038E0002C488078042832D12A49097801F0010156
:1038F00081F00100002228490968FFF761FC254892
:10390000807A012857D123484078012803D02148E4
:103910004078022809D10020052161236D22CDE9DC
:103920000010032100F05EFA07E00020032161236C
:103930006D22CDE9001000F055FA16488078801C01
:10394000144988704FF4FA70FEF73DF833E01148DF
:103950008078052824D100BF0E494978491009B95B
:10396000012100E00021084600220C490968FFF708
:1039700027FC0848807A01281DD106488078401C21
:10398000044988704FF4FA70FEF71DF813E0000048
:103990007802002008030020840000208800002016
:1039A000FFF7E2FB0020FE49087301208870002029
:1039B0008872C88108827CBD60B9FA4A82F8841096
:1039C00092F88420F84B1A600022F64B5A600122CC
:1039D0001A701AE002280CD1F44A82F8841092F886
:1039E0008420F34B1A600022F04B5A6001221A70B7
:1039F0000BE0F04A82F8841092F88420EE4B1A60B3
:103A00000022EC4B5A6001221A7070471CB5EB483B
:103A1000C07801284AD1E9484078012847D1E748D1
:103A20000078002833D10120E4490870E448006898
:103A3000012814D1E2481438006880B90120DC491B
:103A40000860DA4981F8840040F6C410086100205B
:103A50004860032008700120D849487117E0D84811
:103A600014380068012812D1D548006878B90020C0
:103A7000CF490860CD4981F8840040F6C410086140
:103A800000204860032008700120CC494871C748D5
:103A900000780028BED1C9484078401CC74948700A
:103AA000002008704FF4FA70FDF78DFFDDE0C34889
:103AB0004078022839D1C148007830BBBE48A438CC
:103AC0000068012809D0BC48A0380068012804D04B
:103AD000B9489C380068012809D10020FF216123E2
:103AE0006D22CDE90010032100F07CF91CBD0120FE
:103AF000B2490870B0490860AE4981F88400C82016
:103B000008610020486003200870AA480078002857
:103B1000CCD1AA484078401CA849487000200870C1
:103B20004FF4FA70FDF74FFF9FE0A4484078032858
:103B300038D1A2480078D8B90120A04908700020E7
:103B40009D4908609B4981F8840048604CF25030E0
:103B500008610320087000209A49C1F89401914936
:103B600081F8840048604CF25030086103200870EE
:103B700090480078002878D18A480078002874D1CD
:103B80008E480079012870D100208C4908710846C0
:103B90004078401C4870002008704FF4FA70FDF720
:103BA00012FF62E085484078042821D183480078DC
:103BB00070B90120814908707D4908607B4981F80E
:103BC00084004FF4FA7008610020486003200870F8
:103BD00076480078002848D178484078401C7749DA
:103BE0004870002008704FF4FA70FDF7ECFE3CE0DE
:103BF00072484078052824D17048007878B90120AF
:103C00006E49087000206A490860684981F884009C
:103C10004FF47A7008610020486003200870634800
:103C2000007810BB00206849087064484078401C48
:103C300062494870002008704FF4FA70FDF7C3FE27
:103C400013E001205D498870487000200870C8703A
:103C5000052161236D22CDE90010032100F0C2F897
:103C6000012232210846FCF7C4FB00BF3EE72DE9E4
:103C7000F04104460D4616461F46DDF818804346BF
:103C80003A4631462846A047BDE8F08130B54A4C57
:103C9000A43C2468012C09D0474CA03C2468012C8A
:103CA00004D0454C9C3C2468012C00D130BD032439
:103CB0003B4D6C8220242C70EA812B8200246C7096
:103CC0006C83F0242C830124404D2C70344DEC7215
:103CD000EC700024AC7201242C716C7100BFE5E71C
:103CE00030B5354CA43C2468012C09D0324CA03CA2
:103CF0002468012C04D0304C9C3C2468012C00D159
:103D000030BD0324264D6C822C462170EA8103F1DC
:103D10000F042C822C4660702D4C24886C832D4C13
:103D200024882C830124294D2C701D4D2C73AC70DC
:103D30002C716C71AC71EC712C726C720024AC72D1
:103D400000BFDDE730B51C4CA43C2468012C09D031
:103D5000194CA03C2468012C04D0174C9C3C2468CE
:103D6000012C00D130BD03240D4D6C822C462170F6
:103D7000EA81A3F10F042C822C466070144C248835
:103D80006C83144C24882C830124104D2C70044D1A
:103D9000EC72EC702C716C71AC71EC712C721BE0DC
:103DA00008030020580100209401224278020020DC
:103DB00090012142E8010020B08121428C000020C6
:103DC0002C012342000022429200002075000020B6
:103DD000800000207C0000206C720024AC7200BFC8
:103DE000C0E700002DE9F05F0546884691469A46F7
:103DF0000B9EE80000F10A07384604F01DFC04465B
:103E00003946204603F0E9FFAA2020705520607053
:103E1000A57084F8038084F8049084F805A00A98BB
:103E2000A071012D18D13078207270786072B0784E
:103E3000A072F078E0723079207370796073B07995
:103E4000A073F079E073A021E800083021545F21CD
:103E5000E8000930215407E0A021E800083021548F
:103E60005F21E80009302154022012E0072809D020
:103E7000082101EBC501814204D0092101EBC501F4
:103E8000814200D104E0E179225C1144E17100BF7C
:103E9000401CE9000A318142E8DC4FF0000B0DE0E4
:103EA00000BF4021FD4803F013FF0128F9D114F8A9
:103EB0000B10FA4803F09EFE0BF1010BBB45EFD34C
:103EC000204604F091FBBDE8F09F1CB5F4488078D3
:103ED00001280AD10020F2498870052161236D2252
:103EE000CDE900100321FFF77DFF1CBD10B586B0A2
:103EF00004460121880402F0DCFD0121082002F0C3
:103F0000CBFDE64803F03AFD4FF48060ADF81400B5
:103F100003208DF8160018208DF8170005A9E14838
:103F200002F0DEFA4FF40060ADF8140004208DF8C2
:103F3000170005A9DB4802F0D3FA01940020ADF880
:103F40000800ADF80A00ADF80C00ADF810000C2028
:103F5000ADF80E0001A9D14803F053FD0120D2496C
:103F600008608021CD4803F0C0FE0121CB4803F05A
:103F7000D4FD012240F22551C84803F0DAFD272084
:103F80008DF8000002208DF8010003208DF802005A
:103F900001208DF80300684602F04BF90021C34868
:103FA000007867225043C24A115406B010BD70B564
:103FB00006460D46BD48007867214843BC49084481
:103FC00080F86650B948007867214843B8490844EA
:103FD00090F86600022809D10120B6490870002136
:103FE000B248007867225043B14A115400241BE0C4
:103FF00000BF4021A94803F06BFE0128F9D1315DD3
:10400000A64803F0F7FD601CC11700EB115109131E
:10401000A0EB013139B90A20A749088000BFA648A2
:1040200000880028FBD1641C304603F0E1FEA0426A
:10403000DED870BD00B5B3B0A0A0006832901422E5
:104040009FA12DA803F0B0FE2422A2A124A803F072
:10405000ABFE2C22A8A119A803F0A6FEB1A30FCB9A
:10406000CDE91723CDE915014022B2A105A803F03F
:104070009BFEC0A30FCBCDE90323CDE901010321B2
:1040800032A8FFF794FF4FF47A708B49088000BF85
:10409000894800880028FBD103212DA8FFF787FF5E
:1040A0004FF47A708449088000BF83480088002854
:1040B000FBD1022124A8FFF77AFF00BF7D480078DA
:1040C0000028FBD1022119A8FFF771FF4FF47A7085
:1040D0007949088008800880088000BF76480088F9
:1040E0000028FBD1032115A8FFF761FF4FF47A7078
:1040F0007149088000BF704800880028FBD1032167
:1041000005A8FFF754FF4FF47A706B49088000BF91
:10411000694800880028FBD1032101A8FFF747FF69
:104120004FF47A706449088000BF63480088002813
:10413000FBD101215D480078672250435C4A10445E
:1041400080F8661000215948007867225043584A89
:1041500011540120114681F866000121104680F8B3
:10416000CD1080F8341180F89B1180F802120020E5
:1041700009E000224D490978672359434C4B194403
:10418000491C0A54401C6428F3DB33B000BD2DE900
:10419000FC5F4648007800287ED07A4800780028E6
:1041A0000BDD42480078401E6721484340490844DF
:1041B0000079062801D0BDE8FC9F02202CE00728EA
:1041C00019D03A490978491E67225143384A1144A7
:1041D000C978092202EBC10181420CD03349097828
:1041E000491E67225143324A1144C978082202EB22
:1041F000C101814200D10EE02C490978491E672295
:1042000051432B4A1144491C095C5F4A12781144FE
:104210005D4A117000BF401C24490978491E67227D
:104220005143234A1144C9780A2202EBC101814259
:10423000C5DC1E480078401E672148431C490844DD
:10424000007A51490978884227D118480078401EE1
:1042500067214843164908444078AA281DD11348CD
:104260000078401E6721484311490844807855284A
:1042700013D10E480078401E672148430C4908447A
:1042800040796D2809D100203F4908700021074876
:104290000078401E672279E0F7E37BE000480040A9
:1042A0008C000020000C0140BC0121429D00002038
:1042B0002403002094000020300000202B2B2B0032
:1042C00041542B43574D4F44455F4445463D310DC6
:1042D0000A00000041542B43574A41505F44454671
:1042E0003D224A45534F4F222C226A65736F6F352A
:1042F0003636220D0A00000041542B4349505354D6
:104300004152543D22544350222C223139322E3115
:1043100036382E312E313434222C363030300D0ADE
:104320000000000041542B4349504D4F44453D315E
:104330000D0A000041542B4349505354415F4445FA
:10434000463D223139322E3136382E312E38382240
:104350002C223139322E3136382E312E31222C2278
:104360003235352E3235352E3235352E30220D0A86
:104370000000000041542B43495053454E440D0A60
:10438000000000002E0000209E0000205043F64A4E
:10439000115418E00021F5480078401E6722504370
:1043A000F14A1154F1490978491E67225143EE4AF6
:1043B0001144481C642103F010FD052232210846F7
:1043C000FCF717F8F7E6E9480078401E67214843F4
:1043D000E54908440079E6494882E4480078401EEF
:1043E00067214843E0490844C079E1490870DF4843
:1043F0000078401E67214843DB490844817ADB4846
:104400000078401E67225043D74A1044407A01EB9F
:104410000020D749C881D5480078401E672148430D
:1044200011460844017BD1480078401E6722504362
:10443000CD4A1044C07A01EB0020CD490882CB4818
:104440000078401E6721484311460844407BC84914
:104450004870C6480078401E67214843114608440A
:10446000C17BC2480078401E67225043BE4A1044B8
:10447000807B01EB0020BE494883BC480078401E89
:104480006721484311460844417CB8480078401EE3
:1044900067225043B44A1044007C01EB0020B44929
:1044A0000883B2490978491E67225143AE4A114434
:1044B000481C642103F091FCAC480078401EAB49D5
:1044C0000870AB48408A082805D2DFE800F00405F0
:1044D00006CFFEFDFCFB5EE2FDE7A649D1F88000B9
:1044E00003F0FCFE0646A4480CC8304603F0F6FD77
:1044F00082460022A14B03F04AFD04460022A04B55
:1045000003F05EFE804603F00AFF9E490870994959
:10451000D1F8800003F0E2FECDE9000196480CC816
:10452000009803F0DBFD06460022944B03F02FFDBC
:1045300004460022944B03F043FE804603F0EFFE56
:1045400000F0FF0A4FEAEA700AEB10600012AAEBD3
:1045500000208C4948708D49D1F8800003F0BEFEE0
:1045600082468B480CC8504603F0B8FD80460022B6
:10457000824B03F00CFD06460022814B03F020FE27
:10458000044603F0CCFE7F4988708049D1F8800052
:1045900003F0A4FE80467E480CC8404603F09EFD12
:1045A00006460022754B03F0F2FC04460022764BCF
:1045B00003F006FECDE9000103F0B1FE00F0FF0AB2
:1045C0004FEAEA700AEB10600012AAEB00206D4976
:1045D000C8707048006D002802DA0120087102E0FE
:1045E0000020684908716B49086D03F066FE80463B
:1045F000694A6A4B03F072FD0022604BCDE900016D
:1046000003F0C5FC064600225F4B03F0D9FD0446CB
:1046100003F085FE00F0FF0A4FEAEA700AEB106033
:104620000012AAEB0020574948715148C08AB0F5E2
:104630007A7F04D04E48807D401C887102E0F020D3
:10464000504988714A48007D4E49C871084600218A
:1046500061236D22CDE9001002210120FFF7C2FB8A
:10466000012232210846FBF7C4FED4E3404800781B
:10467000112876D005DC48B1012851D010284ED140
:10468000B3E020286ED03028F9D136E139480078DF
:10469000002844D13D480078F0BB3E480078D8BBA4
:1046A0003F480068012809D03D48001D00680128E6
:1046B00004D03B480830006801280ED10020FF21BB
:1046C000612303E095E385E2EEE165E16D22CDE94A
:1046D00000100321FFF786FB6DE500200121612317
:1046E0006D22CDE900100321FFF77CFB01202D494D
:1046F00008701F49C872C870087148718871C87104
:10470000087248720846008A0F38088200208872B2
:1047100001223221084600E001E0FBF76AFE39E1A0
:1047200014480078F8B919480078E0B919480078B9
:10473000C8B91B480068012809D01948001D006845
:10474000012804D016480830006801282CD1002028
:10475000FF2161236D22CDE900100321FFF742FB09
:1047600029E586E0E4E03FE0240300209D000020EE
:104770000803002058010020480000200000E03F0E
:1047800000007040950000200000F03FE80100208C
:1047900050000020780200200AD7A3703D0AB73FDE
:1047A0000C812142750000200020012161236D222F
:1047B000CDE900100321FFF715FB0120F749087030
:1047C000F749C872C870087148718871C871087259
:1047D00048720846008A0F38088200208872012239
:1047E00032210846FBF705FED4E0EE480078E0BB36
:1047F000ED480078C8BBED480078B0BBEC480068D5
:10480000012809D0EA48001D0068012804D0E848C2
:1048100008300068012809D10020FF2161236D22A2
:10482000CDE900100321FFF7DDFAC4E400200121E7
:1048300061236D22CDE900100321FFF7D3FA012097
:10484000D6490870D6490873887008714871887114
:10485000C87108724872002088720846008A0F30BA
:10486000088201223221084600E001E0FBF7C1FD89
:1048700090E0CC480078E0BBCB480078C8BBCB4880
:104880000078B0BBCA480068012809D0C848001D9C
:104890000068012804D0C64808300068012809D102
:1048A0000020FF2161236D22CDE900100321FFF7D5
:1048B00099FA80E40020012161236D22CDE90010E6
:1048C0000321FFF78FFA0120B4490870B449087337
:1048D0008870087148718871C87108724872002028
:1048E00088720846008A0F30088201223221084669
:1048F00000E001E0FBF77DFD4CE0AA480078B0B98C
:10490000A948007898B9A948007880B90020012109
:1049100061236D22CDE900100321FFF763FA012026
:10492000A449C870012232210846FBF762FD31E03C
:104930009C48007868BB9C48007850BB9B48007836
:1049400038BB9B480068012809D09948001D0068C1
:10495000012804D0964808300068012809D10020B9
:10496000FF2161236D22CDE900100321FFF73AFA00
:1049700021E40120894908708949C872C870002063
:104980008872012008714871012232210846FBF724
:1049900030FD00BF00BF3EE2012081494873002086
:1049A000012161236D22CDE900100321FFF71AFADE
:1049B0007B48007800F0300020B1102842D0202839
:1049C0006BD12BE07A480068012809D07848001D97
:1049D0000068012804D0764808300068012809D111
:1049E0000020FF2161236D22CDE900100321FFF794
:1049F000F9F9E7E46A48007800F0010010B10128F5
:104A00000AD104E000210846FEF7D6FF04E00121A8
:104A10000020FEF7D1FF00BF00BF3EE060480078F5
:104A200000F0010010B101280AD104E001210220A8
:104A3000FEF7C2FF04E000210220FEF7BDFF00BF29
:104A400000BF2AE05A480068012809D05848001DD4
:104A50000068012804D0564808300068012809D1B0
:104A60000020FF2161236D22CDE900100321FFF713
:104A7000B9F9A7E44A48007800F0010030B10128F4
:104A800009D10021FEF798FF05E0C5E101210846A4
:104A9000FEF792FF00BF00BF00BF00BF012232211E
:104AA0000846FBF7A6FCB6E10020012161236D2238
:104AB000CDE900100321FFF795F93948007804117A
:104AC000002C01DD102400E0002404F0100010B1DF
:104AD000102878D12DE03248007800F00F00082827
:104AE00021D2DFE800F02004080C1014181C00206C
:104AF0002B4908751BE001202949087517E00220A1
:104B00002749087513E00320254908750FE00420A4
:104B1000234908750BE005202149087507E00620A8
:104B20001F49087503E000201D49087500BF00BF3C
:104B300049E01B48007800F0F00000F00F01D9BBFD
:104B40000011102839D2DFE800F038080C101418D2
:104B50001C20383838383838382400201049C882AA
:104B60002FE001200E49C8822BE002200C49C882A8
:104B700027E003200A49C88223E004200849C882AC
:104B80001FE005200649C8821BE006200449C882B0
:104B900017E04FF47A700249C88212E075000020D5
:104BA0000803002058010020E801002078020020BE
:104BB0000C8121428C000020FFE70020FE49C882C2
:104BC00000BF00BF00BF00BF012232210846FBF733
:104BD00010FC20E10020012161236D22CDE90010AD
:104BE0000321FFF7FFF8F448007800287DD1F3494E
:104BF000087000214FF0804002F0E2FB0020F049F5
:104C000008700021EF4802F0DBFB0020EE4908703D
:104C10000021EE4802F0D4FB0020E749C872087377
:104C20000882C8810120EA490870E349C870887089
:104C3000087148718871C8710872487200208872C2
:104C4000DE49D1F8800003F049FB0646E1480CC874
:104C5000304603F043FA80460022DF4B03F097F919
:104C600004460022DD4B03F0ABFA824603F057FB0B
:104C7000DB490870D149D1F8800003F02FFB0646CC
:104C8000D4480CC8304603F029FA80460022D24BA3
:104C900003F07DF904460022D24B03F091FACDE9EE
:104CA000000103F03CFB00F0FF0A4FEAEA700AEB58
:104CB00010600012AAEB0020C9494870C249D1F81F
:104CC000800003F00BFB0646C7480CC8304603F0D3
:104CD00005FA82460022C04B03F059F9044600222F
:104CE000BE4B03F06DFA804600E06FE003F017FB67
:104CF000BB498870B449D1F8800003F0EFFA06464A
:104D0000B9480CC8304603F0E9F980460022B24B9E
:104D100003F03DF904460022B24B03F051FACDE90D
:104D2000000103F0FCFA00F0FF0A4FEAEA700AEB18
:104D300010600012AAEB0020A949C870A048006DBD
:104D4000002802DA0120087102E00020A44908715D
:104D50009B49086D03F0B1FA0646A44AA44B03F040
:104D6000BDF9804600229C4B03F011F90446002255
:104D70009C4B03F025FACDE9000103F0D0FA00F0D6
:104D8000FF0A4FEAEA700AEB10600012AAEB00205B
:104D9000934948718848C08AB0F57A7F04D0864824
:104DA000807D401C887102E0F0208D498871824826
:104DB000007D8B49C8710846002161236D22CDE931
:104DC000001002210120FFF70DF80CE001208949B5
:104DD00008608949087040F2DC50FCF7F4FD40F2AD
:104DE000DC50FCF7F0FD012232210846FBF701FB05
:104DF00011E00020012161236D22CDE9001007217F
:104E0000FEF7F0FF00206E490865012232210846B6
:104E1000FBF7EFFA00BF00BF00BF5DE410B540F242
:104E20002551764802F094FF754800786721484381
:104E30007449084490F8660001286AD16F4802F06E
:104E4000DDFEC1B26E480078672250436D4A1044BF
:104E500080F865106A480078672148431146084485
:104E600090F8652066480078672148436549084402
:104E7000401C6349097867235943624B595C42548B
:104E80005F480078672148431946085C401CC1B25E
:104E90005B480078672250431A46115458480078FE
:104EA0006721484311460844401C55490978672248
:104EB00051431A461144C978082202EBC101405CF3
:104EC000A02825D14E480078672148431946084458
:104ED000401C4B490978672251431A461144C9784E
:104EE000092202EBC101405C5F2811D144480078DF
:104EF000401C4349087008460078132801DD002053
:104F0000087000213E480078672250433D4A115402
:104F100090E03B480078672148433A49084490F8BC
:104F20006600022870D1354802F068FEC1B23448EC
:104F3000007867225043334A104480F865103048A7
:104F40000078672148431146084490F865202C48B2
:104F50000078672148432B490844401C28490978B8
:104F600067235943274B595C4254254800786721F1
:104F700048431946085C401CC1B2214800786722AA
:104F800050431A4611541E48007867214843114681
:104F9000085C06284EDD1A48007867214843114610
:104FA0000844401C16490978672251431A46515C4F
:104FB000491E405C4B2828E00803002058010020CF
:104FC0007802002000040040E801002000080040B2
:104FD00075000020480000200000E03F0000704005
:104FE000950000200000F03F500000200AD7A37079
:104FF0003D0AB73F94012142930000200048004041
:105000009D0000202403002014E013D10A480078FA
:105010006721484311460844401C07490978672224
:1050200051431A46515C891E405C4F2802D1002032
:105030000249087010BD00009D000020940000206F
:1050400010B586B004460121480401F032FD01216B
:10505000042001F021FDF74802F090FC0420ADF897
:10506000100003208DF8120018208DF8130004A9F9
:10507000F14801F035FA0820ADF8100004208DF851
:10508000130004A9EC4801F02BFA00940020ADF8BD
:105090000400ADF80600ADF80800ADF80C000C20D7
:1050A000ADF80A0026208DF8140003208DF81500B5
:1050B00001208DF816008DF8170005A801F0B9F849
:1050C0006946DC4802F09DFC012240F22551D94896
:1050D00002F02FFD0121D74802F01FFD8021D548A5
:1050E00002F003FE06B010BD70B505460E46002462
:1050F00005E0315DCF4802F07DFD601CC4B2AC42DA
:10510000F7DB70BD10B540F22551CA4802F020FE11
:10511000C84802F073FDC9490870C94800780528DD
:105120001DD2DFE800F0031D384E6400C34800784C
:10513000A5280DD1C1480078C2490978C1EB0111F9
:10514000C1EBC101C04A50540120BD49087006E0BE
:105150000020BB490870BD490860BD49087081E066
:10516000B64800785A280ED1B4480078B549097875
:10517000C1EB0111C1EBC101B34A114448700220D7
:10518000AF49087006E00020AD490870AF490860DB
:10519000AF49087066E0A9480078AA490978C1EBD0
:1051A0000111C1EBC101A84A11448870A8480078D8
:1051B000A24909780844A64908700320A04908704C
:1051C00050E09E4800789F490978C1EB0111C1EB7E
:1051D000C1019D4A1144C8709D48007897490978DB
:1051E00008449B4908700420954908703AE09348A8
:1051F000017894480078C0EB0010C0EBC000924AE0
:105200001044001D914A1268815490480068401C67
:105210008E4908608E4800788849097808448C498E
:10522000087088480078C0EB0010C0EBC0008649C9
:1052300008448078401E85490968884211D10020C1
:105240007F49087082490870804908607D4800786D
:10525000401C7C49087008460078042801DB0120C6
:10526000087000BF00BF10BD70B505460E46002493
:1052700017E000BF40216F4802F02AFD0128F9D154
:10528000295D6C4802F0B6FC601CC0F30B0038B915
:105290000A207049088000BF6E4800880028FBD1B2
:1052A000641CB442E5D370BD1CB50446A5208DF83E
:1052B00000005A208DF8010004208DF802008020A3
:1052C0008DF8030003208DF8040000208DF8050000
:1052D0008DF8064007216846FFF7C6FF1CBD38B5AC
:1052E0000446C4EB0410C0EBC00057490844C07822
:1052F000812802D0832800D100E0A6E2C4EB04108C
:10530000C0EBC00050490844407913280BD2DFE8B5
:1053100000F00A0BF6F5F4F3F2F1F0EFEEEDECEB42
:10532000EAE9E8E7E6008EE2C4EB0410C0EBC00057
:1053300045490844007A252817D2DFE800F0161303
:10534000171B1F23272B2F33373B3F43474B50550A
:105350005A5F64696D717891A1C2FDE8E7E6E5E402
:10536000E3E2E10000203C49C88200E101203A4923
:10537000C882FCE002203849C882F8E003203649A0
:10538000C882F4E004203449C882F0E005203249A4
:10539000C882ECE006203049C882E8E000202E49AF
:1053A0000875E4E001202C490875E0E002202A4954
:1053B0000875DCE0032028490875D8E00420264958
:1053C0000875D4E0052024490875D0E0062022495C
:1053D0000875CCE001210020FEF7EEFAC7E00021BD
:1053E0000846FEF7E9FAC2E001210220FEF7E4FADE
:1053F000BDE000210220FEF7DFFAB8E001210846F7
:10540000FEF7DAFAB3E000210120FEF7D5FAAEE0AC
:105410000120FDF74FFAAAE00020FDF74BFAA6E0C5
:1054200001200E49C8704870002008709FE0FDF709
:105430009BFE9CE000440040000801400C0100205D
:1054400004010020A0000020300B002008010020F3
:105450000D01002030000020080300208C000020F7
:10546000FB4800680090FB48202200210368FA48AE
:10547000FEF7FDFB012232210846FAF7BAFF76E07B
:10548000F6480078FF2803D0F5480078FF2805D1BA
:10549000032232210846FAF7ACFF38BDEC48036816
:1054A000EC480268ED480178ED480078FEF74AFCC8
:1054B0000C20FFF7F9FEFF20E8490870E849087062
:1054C00055E0E6480078FF2803D0E5480078FF283B
:1054D0001FD1032232210846FAF78BFFDDE79FE157
:1054E0008BE177E163E14FE13BE127E113E1FFE08D
:1054F000EBE0D7E0BFE0ABE093E07FE04FE038E0E7
:1055000034E032E030E02BE026E021E01CE017E060
:1055100012E0CF480368CF480268D0480178D048ED
:105520000078FEF7DDFB0C20FFF7BEFEFF20CB4925
:105530000870CB4908701AE00020C849087016E0CE
:105540000120C649087012E01020C44908700EE01E
:105550001120C24908700AE00120C149087006E024
:105560000220BF49087002E001E000E000BF00BF78
:1055700069E1C4EB0410C0EBC000BA490844007AEA
:10558000B9490860084600680C2800D385E7B6488A
:1055900000684FF4CE714843AE49086053E1C4EB54
:1055A0000410C0EBC000AF490844007AAF4908605E
:1055B000084600680A2802D20846006800B96CE76D
:1055C000AA48006804280CD8A84800684FF48771DE
:1055D0004843A7490968C1F58771401A9C4908608A
:1055E0000BE0A24800684FF487714843A04909685E
:1055F000C1F1C801401A9649086024E1C4EB0410C7
:10560000C0EBC00097490844007A9A49086001221B
:105610000421984800F06AFC9648006896490860A2
:1056200011E1C4EB0411C1EBC1018E4A1144087AA7
:1056300002F054FE914A03C20A2208218F4800F06A
:1056400055FC8E48D0E900108D4AC2E90010FAE0FE
:10565000C4EB0410C0EBC00082490844007A8949B9
:10566000086019220421874800F040FC8548006842
:105670007F490860E7E0C4EB0411C1EBC101794A3E
:105680001144087A02F02AFE7F4A03C2232208212D
:105690007D4800F02BFC7C48D0E900107B4AC2E931
:1056A0000010D0E0C4EB0410C0EBC0006D4908440A
:1056B000007A7749086032220421754800F016FC10
:1056C0007348006873490860BDE0C4EB0410C0EB88
:1056D000C00064490844007A6F4908603C220421F4
:1056E0006D4800F003FC6C4800686C490860AAE053
:1056F000C4EB0410C0EBC0005A490844007A684962
:10570000086046220421664800F0F0FB6448006807
:105710006449086097E0C4EB0410C0EBC000514935
:105720000844007A60490860502204215E4800F075
:10573000DDFB5D4800685D49086084E0C4EB04104F
:10574000C0EBC00047490844007A594908605A2212
:105750000421574800F0CAFB5548006855490860C5
:1057600071E0C4EB0410C0EBC0003E490844007A6D
:1057700051490860642204214F4800F0B7FB4E48AD
:1057800000684E4908605EE0C4EB0410C0EBC00046
:1057900034490844007A4A4908606E220421484886
:1057A00000F0A4FB46480068464908604BE0C4EBA3
:1057B0000410C0EBC0002B490844007A424908603D
:1057C00078220421404800F091FB3F4800683F499F
:1057D000086038E0C4EB0410C0EBC0002149084465
:1057E000007A3B49086082220421394800F07EFBA0
:1057F000374800683749086025E0C4EB0410C0EB67
:10580000C00018490844007A334908608C220421FA
:10581000314800F06BFB304800683049086012E006
:10582000C4EB0410C0EBC0000E490844007A2C49B8
:105830000860962204212A4800F058FB2848006896
:105840002849086000BF00BF00BF00BF00BF24E6BA
:10585000B0000020AC0000208D3C0008B500002006
:10586000B4000020300B0020A4000020A80000207D
:1058700078000020B800002040000020C000002078
:1058800048000020C8000020D00000205000002068
:10589000D80000207C000020DC00002080000020D8
:1058A000E000002058000020E40000205C00002000
:1058B000E800002060000020EC00002064000020D0
:1058C000F000002068000020F40000206C000020A0
:1058D000F80000207000002000010020840000205B
:1058E000FC0000208800002010B5C2480078002885
:1058F00065D0C14890F8A701002860D1BD48007864
:10590000401EC0EB0010C0EBC000BB49084490F83B
:105910006810B94880F80C12B6480078401EC0EBF9
:105920000010C0EBC000B449085C81F8A401B14884
:105930000078401EC0EB0010C0EBC0000844417866
:10594000AD4880F8A511AB480078401EC0EB0010B0
:10595000C0EBC000A84908448178A74880F8A61188
:10596000A4480078401EC0EB0010C0EBC000A24964
:105970000844C178A04880F8A71100240EE09D4893
:105980000078401EC0EB0010C0EBC0009A490844EC
:10599000001D015D99480155601CC4B2964890F8FD
:1059A000A601A042EBDC93480078401E91490870A4
:1059B0000420FFF794FC00218F4880F8A71110BD48
:1059C0002DE9FE4F04460D4616461F46DDE90C9AAA
:1059D000DDF83880A5208DF800005A208DF80100F0
:1059E00008F10300C0B28DF8020082208DF8030098
:1059F0008DF804408DF805508DF806608DF807701D
:105A00008DF808908DF809A008F106016846FFF7A7
:105A10002BFCBDE8FE8F08B50121402001F03CF8C9
:105A20000121084601F038F84FF40070ADF800008D
:105A300010208DF8030003208DF80200694670489D
:105A400000F04EFD4FF400716D4800F0F8FD08BD08
:105A500008B50121402001F01FF84FF40070ADF8A7
:105A6000000048208DF803006946654800F038FDC5
:105A700008BD10B501220421624800F078FB0A221B
:105A80000821614800F073FB192204215F4800F0EF
:105A90006EFB232208215E4800F069FB32220421BC
:105AA0005C4800F064FB3C2204215B4800F05FFB93
:105AB00046220421594800F05AFB5022042158483C
:105AC00000F055FB5A220421564800F050FB642296
:105AD0000421554800F04BFB6E220421534800F08E
